:020000040000FA
:1000000000700020ED040000090500000B05000051
:100010000D0500000F0500001105000000000000A4
:1000200000000000000000000000000013050000B8
:100030001505000000000000170500004106000043
:100040001D0500001D0500001D0500001D05000028
:100050001D0500001D0500001D0500001D05000018
:100060001D0500001D0500001D0500001D05000008
:100070001D0500001D0500001D0500001D050000F8
:100080001D0500001D0500001D0500001D050000E8
:100090001D0500001D0500001D0500001D050000D8
:1000A0001D0500001D0500001D0500001D050000C8
:1000B0001D0500001D0500001D0500007505000060
:1000C0001D0500001D0500001D0500001D050000A8
:1000D0001D0500001D0500001D0500001D05000098
:1000E0001D0500001D0500001D0500001D05000088
:1000F0001D0500001D0500001D0500001D05000078
:10010000550500001D0500001D0500001D0500002F
:100110001D0500001D0500001D0500001D05000057
:100120001D0500001D0500001D0500001D05000047
:100130001D050000CD0500001D0500001D05000087
:100140001D0500001D0500001D0500001D05000027
:100150001D0500001D0500001D0500001D05000017
:100160001D0500001D0500001D0500001D05000007
:100170001D0500001D0500001D0500001D050000F7
:100180001D0500001D0500001D0500001D050000E7
:100190001D0500001D0500001D0500001D050000D7
:1001A0001D0500001D0500001D0500001D050000C7
:1001B0001D0500001D0500001D0500001D050000B7
:1001C0001D0500001D0500001D0500001D050000A7
:1001D0001D0500001D0500001D0500001D05000097
:1001E0001D0500001D0500001D0500001D05000087
:1001F0001D0500001D0500001D0500001D05000077
:100200001D0500001D0500001D0500001D05000066
:100210001D0500001D0500001D0500001D05000056
:100220001D0500001D0500001D0500001B05000048
:1002300000000000000000000000000000000000BE
:1002400000000000000000000000000000000000AE
:10025000000000000000000000000000000000009E
:10026000000000000000000000000000000000008E
:10027000000000000000000000000000000000007E
:10028000000000000000000000000000000000006E
:10029000000000000000000000000000000000005E
:1002A000000000000000000000000000000000004E
:1002B000000000000000000000000000000000003E
:1002C000000000000000000000000000000000002E
:1002D000000000000000000000000000000000001E
:1002E000000000000000000000000000000000000E
:1002F00000000000000000000000000000000000FE
:1003000000000000000000000000000000000000ED
:1003100000000000000000000000000000000000DD
:1003200000000000000000000000000000000000CD
:1003300000000000000000000000000000000000BD
:1003400000000000000000000000000000000000AD
:10035000000000000000000000000000000000009D
:10036000000000000000000000000000000000008D
:10037000000000000000000000000000000000007D
:10038000000000000000000000000000000000006D
:10039000000000000000000000000000000000005D
:1003A000000000000000000000000000000000004D
:1003B000000000000000000000000000000000003D
:1003C000000000000000000000000000000000002D
:1003D000000000000000000000000000000000001D
:1003E000000000000000000000000000000000000D
:1003F00000000000000000000000000000000000FD
:10040000FFFFFFFFFFFFFFFFFFFFFFFFFEFFFFFFFD
:1004100008ED00E000F002F800F02EF80AA090E8E5
:10042000000C82448344AAF10107DA4501D100F0AF
:1004300023F8AFF2090EBAE80F0013F0010F18BF4E
:10044000FB1A43F001031847640300007403000023
:100450000023002400250026103A28BF78C1FBD8CD
:10046000520728BF30C148BF0B6070471FB500F06E
:1004700090F91FBD10B510BDDFF80CD0FFF7F6FFE7
:1004800000F082F900F056F80070002003B4FFF786
:10049000F1FF03BC00F058F8300200000080FF1F9D
:1004A000000000000000000030020000BC07000057
:1004B000BC0700000084FF1F0084FF1F0084FF1F93
:1004C000000000200C0000200084FF1F0084FF1F9C
:1004D0000084FF1FBC070000BC07000000000020D4
:1004E000000000200080FF1F006C002072B60C4846
:1004F0000C4901600A6882F308880B4880470B4862
:10050000804762B60A488047FEE7FEE7FEE7FEE75F
:10051000FEE7FEE7FEE7FEE7FEE7FEE7FEE7000098
:1005200008ED00E00000000051060000E9060000B0
:100530001504000010B50446AFF300802046BDE866
:100540001040FFF7A3BF704701491820ABBEFEE77C
:100550002600020047F20C01C4F20301086840F0D3
:100560000100086040F20001C2F200010868013099
:100570000860704780B54AF21C00C4F206000168AA
:1005800040F20400C2F20000017000F08BF81F205E
:1005900000F002F880BD000081B08DF803009DF9E5
:1005A000031001EBD16020F01F028A1A012101FA29
:1005B00002F342114EF28021CEF2000151F82200E6
:1005C000184341F8220001B0704700004BF23000A0
:1005D000C4F204000068C00100280FD5FFE74BF209
:1005E0003001C4F20401086840F08070086040F2F5
:1005F0000501C2F2000101200870FFE74BF2340050
:10060000C4F204000068C00100280FD5FFE74BF2D8
:100610003401C4F20401086840F08070086040F2C0
:100620000501C2F2000100200870FFE770470000DA
:1006300081B04CF27000C4F20200009001B070472B
:1006400040F20801C2F200010868013008607047FA
:100650004EF68851CEF20001086840F47000086040
:100660004EF63471CEF20001086820F08040086038
:1006700042F20400C4F205004CF22051CDF62811DC
:100680000160006842F20001C4F2050142F220104C
:10069000086042F20801C4F205014FF6FF700860DD
:1006A0007047000081B00090FFE74AF21400C4F2E6
:1006B000060000680002002801D4FFE7F5E7009873
:1006C00000784AF21C01C4F206010860FFE74AF212
:1006D0001400C4F2060000684002002801D4FFE7BD
:1006E000F5E701B07047000085B040F29840C0F2D5
:1006F00000000068029040F2A040C0F200000068D4
:10070000019040F29C40C0F2000000680090002080
:100710008DF80F0000980199884224D0FFE700204F
:100720000490FFE704980299B0EB910F0CD2FFE719
:100730000198049A50F82200009941F82200FFE73E
:10074000049801300490EDE740F29C40C0F20000B4
:1007500000689DF80F2040F21041C0F2000151F8EE
:10076000221008600EE040F2A040C0F200000068D5
:100770009DF80F2040F21041C0F2000151F8221004
:100780000860FFE705B0704780B5FFF751FF002014
:1007900080BDF1EE100A4FF6FF71C0F2C03120EAC1
:1007A000010040F04070E1EE100A7047BC07000005
:0C07B000000000200C00000050040000BD
:0400000500000415DE
:00000001FF
